{
  "contractName": "UUNFT",
  "abi": [
    {
      "inputs": [],
      "stateMutability": "payable",
      "type": "constructor"
    },
    {
      "anonymous": false,
      "inputs": [
        {
          "indexed": true,
          "internalType": "address",
          "name": "owner",
          "type": "address"
        },
        {
          "indexed": true,
          "internalType": "address",
          "name": "approved",
          "type": "address"
        },
        {
          "indexed": true,
          "internalType": "uint256",
          "name": "tokenId",
          "type": "uint256"
        }
      ],
      "name": "Approval",
      "type": "event"
    },
    {
      "anonymous": false,
      "inputs": [
        {
          "indexed": true,
          "internalType": "address",
          "name": "owner",
          "type": "address"
        },
        {
          "indexed": true,
          "internalType": "address",
          "name": "operator",
          "type": "address"
        },
        {
          "indexed": false,
          "internalType": "bool",
          "name": "approved",
          "type": "bool"
        }
      ],
      "name": "ApprovalForAll",
      "type": "event"
    },
    {
      "anonymous": false,
      "inputs": [
        {
          "indexed": false,
          "internalType": "address",
          "name": "",
          "type": "address"
        },
        {
          "indexed": false,
          "internalType": "enum UUNFT.TokenLevel",
          "name": "",
          "type": "uint8"
        },
        {
          "indexed": false,
          "internalType": "enum UUNFT.TokenLevel",
          "name": "",
          "type": "uint8"
        },
        {
          "indexed": false,
          "internalType": "enum UUNFT.TokenType",
          "name": "",
          "type": "uint8"
        },
        {
          "indexed": false,
          "internalType": "enum UUNFT.TokenType",
          "name": "",
          "type": "uint8"
        },
        {
          "indexed": false,
          "internalType": "enum UUNFT.TokenVault",
          "name": "",
          "type": "uint8"
        }
      ],
      "name": "GenericEvent",
      "type": "event"
    },
    {
      "anonymous": false,
      "inputs": [
        {
          "indexed": true,
          "internalType": "address",
          "name": "from",
          "type": "address"
        },
        {
          "indexed": true,
          "internalType": "address",
          "name": "to",
          "type": "address"
        },
        {
          "indexed": true,
          "internalType": "uint256",
          "name": "tokenId",
          "type": "uint256"
        }
      ],
      "name": "Transfer",
      "type": "event"
    },
    {
      "stateMutability": "payable",
      "type": "fallback"
    },
    {
      "inputs": [
        {
          "internalType": "address",
          "name": "to",
          "type": "address"
        },
        {
          "internalType": "uint256",
          "name": "tokenId",
          "type": "uint256"
        }
      ],
      "name": "approve",
      "outputs": [],
      "stateMutability": "nonpayable",
      "type": "function"
    },
    {
      "inputs": [
        {
          "internalType": "address",
          "name": "owner",
          "type": "address"
        }
      ],
      "name": "balanceOf",
      "outputs": [
        {
          "internalType": "uint256",
          "name": "",
          "type": "uint256"
        }
      ],
      "stateMutability": "view",
      "type": "function"
    },
    {
      "inputs": [
        {
          "internalType": "uint256",
          "name": "tokenId",
          "type": "uint256"
        }
      ],
      "name": "getApproved",
      "outputs": [
        {
          "internalType": "address",
          "name": "",
          "type": "address"
        }
      ],
      "stateMutability": "view",
      "type": "function"
    },
    {
      "inputs": [
        {
          "internalType": "address",
          "name": "owner",
          "type": "address"
        },
        {
          "internalType": "address",
          "name": "operator",
          "type": "address"
        }
      ],
      "name": "isApprovedForAll",
      "outputs": [
        {
          "internalType": "bool",
          "name": "",
          "type": "bool"
        }
      ],
      "stateMutability": "view",
      "type": "function"
    },
    {
      "inputs": [
        {
          "internalType": "address",
          "name": "",
          "type": "address"
        }
      ],
      "name": "lockedVaultTokens",
      "outputs": [
        {
          "internalType": "enum UUNFT.TokenVault",
          "name": "",
          "type": "uint8"
        }
      ],
      "stateMutability": "view",
      "type": "function"
    },
    {
      "inputs": [],
      "name": "manager",
      "outputs": [
        {
          "internalType": "address",
          "name": "",
          "type": "address"
        }
      ],
      "stateMutability": "view",
      "type": "function"
    },
    {
      "inputs": [],
      "name": "name",
      "outputs": [
        {
          "internalType": "string",
          "name": "",
          "type": "string"
        }
      ],
      "stateMutability": "view",
      "type": "function"
    },
    {
      "inputs": [
        {
          "internalType": "uint256",
          "name": "tokenId",
          "type": "uint256"
        }
      ],
      "name": "ownerOf",
      "outputs": [
        {
          "internalType": "address",
          "name": "",
          "type": "address"
        }
      ],
      "stateMutability": "view",
      "type": "function"
    },
    {
      "inputs": [
        {
          "internalType": "address",
          "name": "from",
          "type": "address"
        },
        {
          "internalType": "address",
          "name": "to",
          "type": "address"
        },
        {
          "internalType": "uint256",
          "name": "tokenId",
          "type": "uint256"
        }
      ],
      "name": "safeTransferFrom",
      "outputs": [],
      "stateMutability": "nonpayable",
      "type": "function"
    },
    {
      "inputs": [
        {
          "internalType": "address",
          "name": "from",
          "type": "address"
        },
        {
          "internalType": "address",
          "name": "to",
          "type": "address"
        },
        {
          "internalType": "uint256",
          "name": "tokenId",
          "type": "uint256"
        },
        {
          "internalType": "bytes",
          "name": "_data",
          "type": "bytes"
        }
      ],
      "name": "safeTransferFrom",
      "outputs": [],
      "stateMutability": "nonpayable",
      "type": "function"
    },
    {
      "inputs": [
        {
          "internalType": "address",
          "name": "operator",
          "type": "address"
        },
        {
          "internalType": "bool",
          "name": "approved",
          "type": "bool"
        }
      ],
      "name": "setApprovalForAll",
      "outputs": [],
      "stateMutability": "nonpayable",
      "type": "function"
    },
    {
      "inputs": [
        {
          "internalType": "bytes4",
          "name": "interfaceId",
          "type": "bytes4"
        }
      ],
      "name": "supportsInterface",
      "outputs": [
        {
          "internalType": "bool",
          "name": "",
          "type": "bool"
        }
      ],
      "stateMutability": "view",
      "type": "function"
    },
    {
      "inputs": [],
      "name": "symbol",
      "outputs": [
        {
          "internalType": "string",
          "name": "",
          "type": "string"
        }
      ],
      "stateMutability": "view",
      "type": "function"
    },
    {
      "inputs": [
        {
          "internalType": "address",
          "name": "",
          "type": "address"
        },
        {
          "internalType": "uint256",
          "name": "",
          "type": "uint256"
        }
      ],
      "name": "tokenOwners",
      "outputs": [
        {
          "internalType": "uint256",
          "name": "",
          "type": "uint256"
        }
      ],
      "stateMutability": "view",
      "type": "function"
    },
    {
      "inputs": [
        {
          "internalType": "uint256",
          "name": "tokenId",
          "type": "uint256"
        }
      ],
      "name": "tokenURI",
      "outputs": [
        {
          "internalType": "string",
          "name": "",
          "type": "string"
        }
      ],
      "stateMutability": "view",
      "type": "function"
    },
    {
      "inputs": [
        {
          "internalType": "uint256",
          "name": "",
          "type": "uint256"
        }
      ],
      "name": "tokens",
      "outputs": [
        {
          "internalType": "uint256",
          "name": "id",
          "type": "uint256"
        },
        {
          "internalType": "uint256",
          "name": "timestamp",
          "type": "uint256"
        },
        {
          "internalType": "address",
          "name": "owner",
          "type": "address"
        },
        {
          "internalType": "enum UUNFT.TokenLevel",
          "name": "tokenLevel",
          "type": "uint8"
        },
        {
          "internalType": "enum UUNFT.TokenType",
          "name": "tokenType",
          "type": "uint8"
        }
      ],
      "stateMutability": "view",
      "type": "function"
    },
    {
      "inputs": [
        {
          "internalType": "address",
          "name": "from",
          "type": "address"
        },
        {
          "internalType": "address",
          "name": "to",
          "type": "address"
        },
        {
          "internalType": "uint256",
          "name": "tokenId",
          "type": "uint256"
        }
      ],
      "name": "transferFrom",
      "outputs": [],
      "stateMutability": "nonpayable",
      "type": "function"
    },
    {
      "stateMutability": "payable",
      "type": "receive"
    },
    {
      "inputs": [
        {
          "internalType": "enum UUNFT.TokenType",
          "name": "_tokenType",
          "type": "uint8"
        }
      ],
      "name": "CreateToken",
      "outputs": [],
      "stateMutability": "payable",
      "type": "function"
    },
    {
      "inputs": [
        {
          "internalType": "uint256",
          "name": "_tokenToBeUpgradedId",
          "type": "uint256"
        }
      ],
      "name": "upgradeToken",
      "outputs": [],
      "stateMutability": "payable",
      "type": "function"
    },
    {
      "inputs": [
        {
          "internalType": "uint256",
          "name": "_tokenToBeBurnedId",
          "type": "uint256"
        }
      ],
      "name": "removeTokenById",
      "outputs": [],
      "stateMutability": "nonpayable",
      "type": "function"
    },
    {
      "inputs": [],
      "name": "balance",
      "outputs": [
        {
          "internalType": "uint256",
          "name": "",
          "type": "uint256"
        }
      ],
      "stateMutability": "view",
      "type": "function"
    },
    {
      "inputs": [
        {
          "internalType": "address",
          "name": "o",
          "type": "address"
        }
      ],
      "name": "getVault",
      "outputs": [
        {
          "internalType": "enum UUNFT.TokenVault",
          "name": "",
          "type": "uint8"
        }
      ],
      "stateMutability": "view",
      "type": "function"
    },
    {
      "inputs": [
        {
          "internalType": "uint256",
          "name": "_tokenToBeUpgradedId",
          "type": "uint256"
        },
        {
          "internalType": "enum UUNFT.TokenType",
          "name": "_designatedType",
          "type": "uint8"
        }
      ],
      "name": "mutateToken",
      "outputs": [],
      "stateMutability": "payable",
      "type": "function"
    },
    {
      "inputs": [
        {
          "internalType": "address",
          "name": "_winner",
          "type": "address"
        }
      ],
      "name": "giveWinnerProfit",
      "outputs": [],
      "stateMutability": "payable",
      "type": "function"
    },
    {
      "inputs": [
        {
          "internalType": "uint256",
          "name": "_tokenToBeDisasabledId",
          "type": "uint256"
        }
      ],
      "name": "Disasamble",
      "outputs": [],
      "stateMutability": "nonpayable",
      "type": "function"
    },
    {
      "inputs": [
        {
          "internalType": "uint256",
          "name": "_tokenToBeDownGraded",
          "type": "uint256"
        }
      ],
      "name": "downgrade",
      "outputs": [],
      "stateMutability": "payable",
      "type": "function"
    },
    {
      "inputs": [
        {
          "internalType": "uint256",
          "name": "_tokenToBeUpdatedId",
          "type": "uint256"
        }
      ],
      "name": "updateToMax",
      "outputs": [],
      "stateMutability": "payable",
      "type": "function"
    },
    {
      "inputs": [
        {
          "internalType": "enum UUNFT.TokenVault",
          "name": "_tokenVault",
          "type": "uint8"
        }
      ],
      "name": "Stake",
      "outputs": [],
      "stateMutability": "nonpayable",
      "type": "function"
    },
    {
      "inputs": [
        {
          "internalType": "enum UUNFT.TokenVault",
          "name": "_currentTokenVault",
          "type": "uint8"
        }
      ],
      "name": "unStake",
      "outputs": [],
      "stateMutability": "nonpayable",
      "type": "function"
    }
  ],
  "bytecode": "0x60806040526001600660146101000a81548167ffffffffffffffff021916908367ffffffffffffffff1602179055506040518060400160405280600d81526020017f55706772616461626c654e4654000000000000000000000000000000000000008152506040518060400160405280600581526020017f55554e46540000000000000000000000000000000000000000000000000000008152508160009080519060200190620000b292919062000115565b508060019080519060200190620000cb92919062000115565b50505033600660006101000a81548173ffffffffffffffffffffffffffffffffffffffff021916908373ffffffffffffffffffffffffffffffffffffffff1602179055506200022a565b8280546200012390620001c5565b90600052602060002090601f01602090048101928262000147576000855562000193565b82601f106200016257805160ff191683800117855562000193565b8280016001018555821562000193579182015b828111156200019257825182559160200191906001019062000175565b5b509050620001a29190620001a6565b5090565b5b80821115620001c1576000816000905550600101620001a7565b5090565b60006002820490506001821680620001de57607f821691505b60208210811415620001f557620001f4620001fb565b5b50919050565b7f4e487b7100000000000000000000000000000000000000000000000000000000600052602260045260246000fd5b616199806200023a6000396000f3fe6080604052600436106101c65760003560e01c80636352211e116100f7578063b69ef8a811610095578063c87b56dd11610064578063c87b56dd1461063b578063d010c3f514610678578063e8c00e3914610694578063e985e9c5146106bd576101cd565b8063b69ef8a81461058e578063b88d4fde146105b9578063bc9d3b3b146105e2578063c287f7011461061f576101cd565b80638b5e51d2116100d15780638b5e51d2146104e157806395d89b411461051e5780639b54251114610549578063a22cb46514610565576101cd565b80636352211e1461043e57806370a082311461047b5780637b653802146104b8576101cd565b806332309a781161016457806342842e0e1161013e57806342842e0e1461038d578063481c6a75146103b65780634f64b2be146103e157806354b5ae3a14610422576101cd565b806332309a781461031f5780633cce43301461033b578063420b256814610364576101cd565b8063095ea7b3116101a0578063095ea7b3146102745780630eb9af381461029d57806311bcc81e146102da57806323b872dd146102f6576101cd565b806301ffc9a7146101cf57806306fdde031461020c578063081812fc14610237576101cd565b366101cd57005b005b3480156101db57600080fd5b506101f660048036038101906101f19190614baa565b6106fa565b60405161020391906157fa565b60405180910390f35b34801561021857600080fd5b506102216107dc565b60405161022e9190615830565b60405180910390f35b34801561024357600080fd5b5061025e60048036038101906102599190614c4e565b61086e565b60405161026b9190615732565b60405180910390f35b34801561028057600080fd5b5061029b60048036038101906102969190614b6e565b6108f3565b005b3480156102a957600080fd5b506102c460048036038101906102bf9190614a03565b610a0b565b6040516102d19190615815565b60405180910390f35b6102f460048036038101906102ef9190614c4e565b610a61565b005b34801561030257600080fd5b5061031d60048036038101906103189190614a68565b61102f565b005b61033960048036038101906103349190614c4e565b61108f565b005b34801561034757600080fd5b50610362600480360381019061035d9190614c4e565b6114de565b005b34801561037057600080fd5b5061038b60048036038101906103869190614c4e565b611ad0565b005b34801561039957600080fd5b506103b460048036038101906103af9190614a68565b611ed6565b005b3480156103c257600080fd5b506103cb611ef6565b6040516103d89190615732565b60405180910390f35b3480156103ed57600080fd5b5061040860048036038101906104039190614c4e565b611f1c565b604051610419959493929190615b8d565b60405180910390f35b61043c60048036038101906104379190614bfc565b611f8c565b005b34801561044a57600080fd5b5061046560048036038101906104609190614c4e565b61267c565b6040516104729190615732565b60405180910390f35b34801561048757600080fd5b506104a2600480360381019061049d9190614a03565b61272e565b6040516104af9190615b72565b60405180910390f35b3480156104c457600080fd5b506104df60048036038101906104da9190614c25565b6127e6565b005b3480156104ed57600080fd5b5061050860048036038101906105039190614b6e565b612c72565b6040516105159190615b72565b60405180910390f35b34801561052a57600080fd5b50610533612c9a565b6040516105409190615830565b60405180910390f35b610563600480360381019061055e9190614c4e565b612d2c565b005b34801561057157600080fd5b5061058c60048036038101906105879190614b32565b6130dd565b005b34801561059a57600080fd5b506105a361325e565b6040516105b09190615b72565b60405180910390f35b3480156105c557600080fd5b506105e060048036038101906105db9190614ab7565b613266565b005b3480156105ee57600080fd5b5061060960048036038101906106049190614a03565b6132c8565b6040516106169190615815565b60405180910390f35b61063960048036038101906106349190614c77565b6132e8565b005b34801561064757600080fd5b50610662600480360381019061065d9190614c4e565b61378c565b60405161066f9190615830565b60405180910390f35b610692600480360381019061068d9190614a03565b613833565b005b3480156106a057600080fd5b506106bb60048036038101906106b69190614c25565b613916565b005b3480156106c957600080fd5b506106e460048036038101906106df9190614a2c565b613ea2565b6040516106f191906157fa565b60405180910390f35b60007f80ac58cd000000000000000000000000000000000000000000000000000000007bffffffffffffffffffffffffffffffffffffffffffffffffffffffff1916827bffffffffffffffffffffffffffffffffffffffffffffffffffffffff191614806107c557507f5b5e139f000000000000000000000000000000000000000000000000000000007bffffffffffffffffffffffffffffffffffffffffffffffffffffffff1916827bffffffffffffffffffffffffffffffffffffffffffffffffffffffff1916145b806107d557506107d482613f36565b5b9050919050565b6060600080546107eb90615ed2565b80601f016020809104026020016040519081016040528092919081815260200182805461081790615ed2565b80156108645780601f1061083957610100808354040283529160200191610864565b820191906000526020600020905b81548152906001019060200180831161084757829003601f168201915b5050505050905090565b600061087982613fa0565b6108b8576040517f08c379a00000000000000000000000000000000000000000000000000000000081526004016108af90615a32565b60405180910390fd5b6004600083815260200190815260200160002060009054906101000a900473ffffffffffffffffffffffffffffffffffffffff169050919050565b60006108fe8261267c565b90508073ffffffffffffffffffffffffffffffffffffffff168373ffffffffffffffffffffffffffffffffffffffff16141561096f576040517f08c379a000000000000000000000000000000000000000000000000000000000815260040161096690615ab2565b60405180910390fd5b8073ffffffffffffffffffffffffffffffffffffffff1661098e61400c565b73ffffffffffffffffffffffffffffffffffffffff1614806109bd57506109bc816109b761400c565b613ea2565b5b6109fc576040517f08c379a00000000000000000000000000000000000000000000000000000000081526004016109f3906159b2565b60405180910390fd5b610a068383614014565b505050565b6000600860008373ffffffffffffffffffffffffffffffffffffffff1673ffffffffffffffffffffffffffffffffffffffff16815260200190815260200160002060009054906101000a900460ff169050919050565b6007600082815260200190815260200160002060020160009054906101000a900473ffffffffffffffffffffffffffffffffffffffff1673ffffffffffffffffffffffffffffffffffffffff163373ffffffffffffffffffffffffffffffffffffffff1614610b05576040517f08c379a0000000000000000000000000000000000000000000000000000000008152600401610afc90615a12565b60405180910390fd5b60006003811115610b3f577f4e487b7100000000000000000000000000000000000000000000000000000000600052602160045260246000fd5b6007600083815260200190815260200160002060020160149054906101000a900460ff166003811115610b9b577f4e487b7100000000000000000000000000000000000000000000000000000000600052602160045260246000fd5b1415610bdc576040517f08c379a0000000000000000000000000000000000000000000000000000000008152600401610bd3906158b2565b60405180910390fd5b60016007600083815260200190815260200160002060020160149054906101000a900460ff166003811115610c3a577f4e487b7100000000000000000000000000000000000000000000000000000000600052602160045260246000fd5b610c449190615d65565b6003811115610c7c577f4e487b7100000000000000000000000000000000000000000000000000000000600052602160045260246000fd5b6007600083815260200190815260200160002060020160146101000a81548160ff02191690836003811115610cda577f4e487b7100000000000000000000000000000000000000000000000000000000600052602160045260246000fd5b02179055503373ffffffffffffffffffffffffffffffffffffffff166108fc610d0360056140cd565b9081150290604051600060405180830381858888f19350505050158015610d2e573d6000803e3d6000fd5b507f322113d805063fc9d63c203f13c8a2970812c3cab7cfe8cc150ee195493b60dd3360076000600960003373ffffffffffffffffffffffffffffffffffffffff1673ffffffffffffffffffffffffffffffffffffffff168152602001908152602001600020600060048110610dcd577f4e487b7100000000000000000000000000000000000000000000000000000000600052603260045260246000fd5b0154815260200190815260200160002060020160149054906101000a900460ff1660076000600960003373ffffffffffffffffffffffffffffffffffffffff1673ffffffffffffffffffffffffffffffffffffffff168152602001908152602001600020600160048110610e6a577f4e487b7100000000000000000000000000000000000000000000000000000000600052603260045260246000fd5b0154815260200190815260200160002060020160149054906101000a900460ff1660076000600960003373ffffffffffffffffffffffffffffffffffffffff1673ffffffffffffffffffffffffffffffffffffffff168152602001908152602001600020600060048110610f07577f4e487b7100000000000000000000000000000000000000000000000000000000600052603260045260246000fd5b0154815260200190815260200160002060020160159054906101000a900460ff1660076000600960003373ffffffffffffffffffffffffffffffffffffffff1673ffffffffffffffffffffffffffffffffffffffff168152602001908152602001600020600160048110610fa4577f4e487b7100000000000000000000000000000000000000000000000000000000600052603260045260246000fd5b0154815260200190815260200160002060020160159054906101000a900460ff16600860003373ffffffffffffffffffffffffffffffffffffffff1673ffffffffffffffffffffffffffffffffffffffff16815260200190815260200160002060009054906101000a900460ff1660405161102496959493929190615799565b60405180910390a150565b61104061103a61400c565b826140ee565b61107f576040517f08c379a000000000000000000000000000000000000000000000000000000000815260040161107690615af2565b60405180910390fd5b61108a8383836141cc565b505050565b611099600a6140cd565b3410156110db576040517f08c379a00000000000000000000000000000000000000000000000000000000081526004016110d290615992565b60405180910390fd5b60016007600083815260200190815260200160002060020160149054906101000a900460ff166003811115611139577f4e487b7100000000000000000000000000000000000000000000000000000000600052602160045260246000fd5b6111439190615c84565b600381111561117b577f4e487b7100000000000000000000000000000000000000000000000000000000600052602160045260246000fd5b6007600083815260200190815260200160002060020160146101000a81548160ff021916908360038111156111d9577f4e487b7100000000000000000000000000000000000000000000000000000000600052602160045260246000fd5b02179055507f322113d805063fc9d63c203f13c8a2970812c3cab7cfe8cc150ee195493b60dd3360076000600960003373ffffffffffffffffffffffffffffffffffffffff1673ffffffffffffffffffffffffffffffffffffffff16815260200190815260200160002060006004811061127c577f4e487b7100000000000000000000000000000000000000000000000000000000600052603260045260246000fd5b0154815260200190815260200160002060020160149054906101000a900460ff1660076000600960003373ffffffffffffffffffffffffffffffffffffffff1673ffffffffffffffffffffffffffffffffffffffff168152602001908152602001600020600160048110611319577f4e487b7100000000000000000000000000000000000000000000000000000000600052603260045260246000fd5b0154815260200190815260200160002060020160149054906101000a900460ff1660076000600960003373ffffffffffffffffffffffffffffffffffffffff1673ffffffffffffffffffffffffffffffffffffffff1681526020019081526020016000206000600481106113b6577f4e487b7100000000000000000000000000000000000000000000000000000000600052603260045260246000fd5b0154815260200190815260200160002060020160159054906101000a900460ff1660076000600960003373ffffffffffffffffffffffffffffffffffffffff1673ffffffffffffffffffffffffffffffffffffffff168152602001908152602001600020600160048110611453577f4e487b7100000000000000000000000000000000000000000000000000000000600052603260045260246000fd5b0154815260200190815260200160002060020160159054906101000a900460ff16600860003373ffffffffffffffffffffffffffffffffffffffff1673ffffffffffffffffffffffffffffffffffffffff16815260200190815260200160002060009054906101000a900460ff166040516114d396959493929190615799565b60405180910390a150565b60005b600960003373ffffffffffffffffffffffffffffffffffffffff1673ffffffffffffffffffffffffffffffffffffffff168152602001908152602001600020506004811015611acc5781600960003373ffffffffffffffffffffffffffffffffffffffff1673ffffffffffffffffffffffffffffffffffffffff16815260200190815260200160002082600481106115a2577f4e487b7100000000000000000000000000000000000000000000000000000000600052603260045260246000fd5b01541415611ab957600960003373ffffffffffffffffffffffffffffffffffffffff1673ffffffffffffffffffffffffffffffffffffffff1681526020019081526020016000206001600960003373ffffffffffffffffffffffffffffffffffffffff1673ffffffffffffffffffffffffffffffffffffffff1681526020019081526020016000205060046116379190615d65565b6004811061166e577f4e487b7100000000000000000000000000000000000000000000000000000000600052603260045260246000fd5b0154600960003373ffffffffffffffffffffffffffffffffffffffff1673ffffffffffffffffffffffffffffffffffffffff16815260200190815260200160002082600481106116e7577f4e487b7100000000000000000000000000000000000000000000000000000000600052603260045260246000fd5b01819055506000600960003373ffffffffffffffffffffffffffffffffffffffff1673ffffffffffffffffffffffffffffffffffffffff1681526020019081526020016000206001600960003373ffffffffffffffffffffffffffffffffffffffff1673ffffffffffffffffffffffffffffffffffffffff16815260200190815260200160002050600461177b9190615d65565b600481106117b2577f4e487b7100000000000000000000000000000000000000000000000000000000600052603260045260246000fd5b01819055507f322113d805063fc9d63c203f13c8a2970812c3cab7cfe8cc150ee195493b60dd3360076000600960003373ffffffffffffffffffffffffffffffffffffffff1673ffffffffffffffffffffffffffffffffffffffff168152602001908152602001600020600060048110611855577f4e487b7100000000000000000000000000000000000000000000000000000000600052603260045260246000fd5b0154815260200190815260200160002060020160149054906101000a900460ff1660076000600960003373ffffffffffffffffffffffffffffffffffffffff1673ffffffffffffffffffffffffffffffffffffffff1681526020019081526020016000206001600481106118f2577f4e487b7100000000000000000000000000000000000000000000000000000000600052603260045260246000fd5b0154815260200190815260200160002060020160149054906101000a900460ff1660076000600960003373ffffffffffffffffffffffffffffffffffffffff1673ffffffffffffffffffffffffffffffffffffffff16815260200190815260200160002060006004811061198f577f4e487b7100000000000000000000000000000000000000000000000000000000600052603260045260246000fd5b0154815260200190815260200160002060020160159054906101000a900460ff1660076000600960003373ffffffffffffffffffffffffffffffffffffffff1673ffffffffffffffffffffffffffffffffffffffff168152602001908152602001600020600160048110611a2c577f4e487b7100000000000000000000000000000000000000000000000000000000600052603260045260246000fd5b0154815260200190815260200160002060020160159054906101000a900460ff16600860003373ffffffffffffffffffffffffffffffffffffffff1673ffffffffffffffffffffffffffffffffffffffff16815260200190815260200160002060009054906101000a900460ff16604051611aac96959493929190615799565b60405180910390a1611acc565b8080611ac490615f04565b9150506114e1565b5050565b6007600082815260200190815260200160002060020160009054906101000a900473ffffffffffffffffffffffffffffffffffffffff1673ffffffffffffffffffffffffffffffffffffffff163373ffffffffffffffffffffffffffffffffffffffff1614611b74576040517f08c379a0000000000000000000000000000000000000000000000000000000008152600401611b6b90615ad2565b60405180910390fd5b611b7d816114de565b611b8681614428565b3373ffffffffffffffffffffffffffffffffffffffff166108fc611baa60056140cd565b9081150290604051600060405180830381858888f19350505050158015611bd5573d6000803e3d6000fd5b507f322113d805063fc9d63c203f13c8a2970812c3cab7cfe8cc150ee195493b60dd3360076000600960003373ffffffffffffffffffffffffffffffffffffffff1673ffffffffffffffffffffffffffffffffffffffff168152602001908152602001600020600060048110611c74577f4e487b7100000000000000000000000000000000000000000000000000000000600052603260045260246000fd5b0154815260200190815260200160002060020160149054906101000a900460ff1660076000600960003373ffffffffffffffffffffffffffffffffffffffff1673ffffffffffffffffffffffffffffffffffffffff168152602001908152602001600020600160048110611d11577f4e487b7100000000000000000000000000000000000000000000000000000000600052603260045260246000fd5b0154815260200190815260200160002060020160149054906101000a900460ff1660076000600960003373ffffffffffffffffffffffffffffffffffffffff1673ffffffffffffffffffffffffffffffffffffffff168152602001908152602001600020600060048110611dae577f4e487b7100000000000000000000000000000000000000000000000000000000600052603260045260246000fd5b0154815260200190815260200160002060020160159054906101000a900460ff1660076000600960003373ffffffffffffffffffffffffffffffffffffffff1673ffffffffffffffffffffffffffffffffffffffff168152602001908152602001600020600160048110611e4b577f4e487b7100000000000000000000000000000000000000000000000000000000600052603260045260246000fd5b0154815260200190815260200160002060020160159054906101000a900460ff16600860003373ffffffffffffffffffffffffffffffffffffffff1673ffffffffffffffffffffffffffffffffffffffff16815260200190815260200160002060009054906101000a900460ff16604051611ecb96959493929190615799565b60405180910390a150565b611ef183838360405180602001604052806000815250613266565b505050565b600660009054906101000a900473ffffffffffffffffffffffffffffffffffffffff1681565b60076020528060005260406000206000915090508060000154908060010154908060020160009054906101000a900473ffffffffffffffffffffffffffffffffffffffff16908060020160149054906101000a900460ff16908060020160159054906101000a900460ff16905085565b611f9660016140cd565b341015611fd8576040517f08c379a0000000000000000000000000000000000000000000000000000000008152600401611fcf90615b52565b60405180910390fd5b6000600960003373ffffffffffffffffffffffffffffffffffffffff1673ffffffffffffffffffffffffffffffffffffffff168152602001908152602001600020826001811115612052577f4e487b7100000000000000000000000000000000000000000000000000000000600052602160045260246000fd5b60048110612089577f4e487b7100000000000000000000000000000000000000000000000000000000600052603260045260246000fd5b0154146120cb576040517f08c379a00000000000000000000000000000000000000000000000000000000081526004016120c290615b32565b60405180910390fd5b600660149054906101000a900467ffffffffffffffff1667ffffffffffffffff1660076000600660149054906101000a900467ffffffffffffffff1667ffffffffffffffff168152602001908152602001600020600001819055504260076000600660149054906101000a900467ffffffffffffffff1667ffffffffffffffff168152602001908152602001600020600101819055508060076000600660149054906101000a900467ffffffffffffffff1667ffffffffffffffff16815260200190815260200160002060020160156101000a81548160ff021916908360018111156121e0577f4e487b7100000000000000000000000000000000000000000000000000000000600052602160045260246000fd5b02179055503360076000600660149054906101000a900467ffffffffffffffff1667ffffffffffffffff16815260200190815260200160002060020160006101000a81548173ffffffffffffffffffffffffffffffffffffffff021916908373ffffffffffffffffffffffffffffffffffffffff160217905550600660149054906101000a900467ffffffffffffffff1667ffffffffffffffff16600960003373ffffffffffffffffffffffffffffffffffffffff1673ffffffffffffffffffffffffffffffffffffffff1681526020019081526020016000208260018111156122f3577f4e487b7100000000000000000000000000000000000000000000000000000000600052602160045260246000fd5b6004811061232a577f4e487b7100000000000000000000000000000000000000000000000000000000600052603260045260246000fd5b01819055507f322113d805063fc9d63c203f13c8a2970812c3cab7cfe8cc150ee195493b60dd3360076000600960003373ffffffffffffffffffffffffffffffffffffffff1673ffffffffffffffffffffffffffffffffffffffff1681526020019081526020016000206000600481106123cd577f4e487b7100000000000000000000000000000000000000000000000000000000600052603260045260246000fd5b0154815260200190815260200160002060020160149054906101000a900460ff1660076000600960003373ffffffffffffffffffffffffffffffffffffffff1673ffffffffffffffffffffffffffffffffffffffff16815260200190815260200160002060016004811061246a577f4e487b7100000000000000000000000000000000000000000000000000000000600052603260045260246000fd5b0154815260200190815260200160002060020160149054906101000a900460ff1660076000600960003373ffffffffffffffffffffffffffffffffffffffff1673ffffffffffffffffffffffffffffffffffffffff168152602001908152602001600020600060048110612507577f4e487b7100000000000000000000000000000000000000000000000000000000600052603260045260246000fd5b0154815260200190815260200160002060020160159054906101000a900460ff1660076000600960003373ffffffffffffffffffffffffffffffffffffffff1673ffffffffffffffffffffffffffffffffffffffff1681526020019081526020016000206001600481106125a4577f4e487b7100000000000000000000000000000000000000000000000000000000600052603260045260246000fd5b0154815260200190815260200160002060020160159054906101000a900460ff16600860003373ffffffffffffffffffffffffffffffffffffffff1673ffffffffffffffffffffffffffffffffffffffff16815260200190815260200160002060009054906101000a900460ff1660405161262496959493929190615799565b60405180910390a16006601481819054906101000a900467ffffffffffffffff168092919061265290615f4d565b91906101000a81548167ffffffffffffffff021916908367ffffffffffffffff1602179055505050565b6000806002600084815260200190815260200160002060009054906101000a900473ffffffffffffffffffffffffffffffffffffffff169050600073ffffffffffffffffffffffffffffffffffffffff168173ffffffffffffffffffffffffffffffffffffffff161415612725576040517f08c379a000000000000000000000000000000000000000000000000000000000815260040161271c906159f2565b60405180910390fd5b80915050919050565b60008073ffffffffffffffffffffffffffffffffffffffff168273ffffffffffffffffffffffffffffffffffffffff16141561279f576040517f08c379a0000000000000000000000000000000000000000000000000000000008152600401612796906159d2565b60405180910390fd5b600360008373ffffffffffffffffffffffffffffffffffffffff1673ffffffffffffffffffffffffffffffffffffffff168152602001908152602001600020549050919050565b60006002811115612820577f4e487b7100000000000000000000000000000000000000000000000000000000600052602160045260246000fd5b600860003373ffffffffffffffffffffffffffffffffffffffff1673ffffffffffffffffffffffffffffffffffffffff16815260200190815260200160002060009054906101000a900460ff1660028111156128a5577f4e487b7100000000000000000000000000000000000000000000000000000000600052602160045260246000fd5b146128e5576040517f08c379a00000000000000000000000000000000000000000000000000000000081526004016128dc906158d2565b60405180910390fd5b80600860003373ffffffffffffffffffffffffffffffffffffffff1673ffffffffffffffffffffffffffffffffffffffff16815260200190815260200160002060006101000a81548160ff0219169083600281111561296d577f4e487b7100000000000000000000000000000000000000000000000000000000600052602160045260246000fd5b02179055507f322113d805063fc9d63c203f13c8a2970812c3cab7cfe8cc150ee195493b60dd3360076000600960003373ffffffffffffffffffffffffffffffffffffffff1673ffffffffffffffffffffffffffffffffffffffff168152602001908152602001600020600060048110612a10577f4e487b7100000000000000000000000000000000000000000000000000000000600052603260045260246000fd5b0154815260200190815260200160002060020160149054906101000a900460ff1660076000600960003373ffffffffffffffffffffffffffffffffffffffff1673ffffffffffffffffffffffffffffffffffffffff168152602001908152602001600020600160048110612aad577f4e487b7100000000000000000000000000000000000000000000000000000000600052603260045260246000fd5b0154815260200190815260200160002060020160149054906101000a900460ff1660076000600960003373ffffffffffffffffffffffffffffffffffffffff1673ffffffffffffffffffffffffffffffffffffffff168152602001908152602001600020600060048110612b4a577f4e487b7100000000000000000000000000000000000000000000000000000000600052603260045260246000fd5b0154815260200190815260200160002060020160159054906101000a900460ff1660076000600960003373ffffffffffffffffffffffffffffffffffffffff1673ffffffffffffffffffffffffffffffffffffffff168152602001908152602001600020600160048110612be7577f4e487b7100000000000000000000000000000000000000000000000000000000600052603260045260246000fd5b0154815260200190815260200160002060020160159054906101000a900460ff16600860003373ffffffffffffffffffffffffffffffffffffffff1673ffffffffffffffffffffffffffffffffffffffff16815260200190815260200160002060009054906101000a900460ff16604051612c6796959493929190615799565b60405180910390a150565b60096020528160005260406000208160048110612c8e57600080fd5b01600091509150505481565b606060018054612ca990615ed2565b80601f0160208091040260200160405190810160405280929190818152602001828054612cd590615ed2565b8015612d225780601f10612cf757610100808354040283529160200191612d22565b820191906000526020600020905b815481529060010190602001808311612d0557829003601f168201915b5050505050905090565b612d3660146140cd565b341015612d78576040517f08c379a0000000000000000000000000000000000000000000000000000000008152600401612d6f90615952565b60405180910390fd5b60036007600083815260200190815260200160002060020160146101000a81548160ff02191690836003811115612dd8577f4e487b7100000000000000000000000000000000000000000000000000000000600052602160045260246000fd5b02179055507f322113d805063fc9d63c203f13c8a2970812c3cab7cfe8cc150ee195493b60dd3360076000600960003373ffffffffffffffffffffffffffffffffffffffff1673ffffffffffffffffffffffffffffffffffffffff168152602001908152602001600020600060048110612e7b577f4e487b7100000000000000000000000000000000000000000000000000000000600052603260045260246000fd5b0154815260200190815260200160002060020160149054906101000a900460ff1660076000600960003373ffffffffffffffffffffffffffffffffffffffff1673ffffffffffffffffffffffffffffffffffffffff168152602001908152602001600020600160048110612f18577f4e487b7100000000000000000000000000000000000000000000000000000000600052603260045260246000fd5b0154815260200190815260200160002060020160149054906101000a900460ff1660076000600960003373ffffffffffffffffffffffffffffffffffffffff1673ffffffffffffffffffffffffffffffffffffffff168152602001908152602001600020600060048110612fb5577f4e487b7100000000000000000000000000000000000000000000000000000000600052603260045260246000fd5b0154815260200190815260200160002060020160159054906101000a900460ff1660076000600960003373ffffffffffffffffffffffffffffffffffffffff1673ffffffffffffffffffffffffffffffffffffffff168152602001908152602001600020600160048110613052577f4e487b7100000000000000000000000000000000000000000000000000000000600052603260045260246000fd5b0154815260200190815260200160002060020160159054906101000a900460ff16600860003373ffffffffffffffffffffffffffffffffffffffff1673ffffffffffffffffffffffffffffffffffffffff16815260200190815260200160002060009054906101000a900460ff166040516130d296959493929190615799565b60405180910390a150565b6130e561400c565b73ffffffffffffffffffffffffffffffffffffffff168273ffffffffffffffffffffffffffffffffffffffff161415613153576040517f08c379a000000000000000000000000000000000000000000000000000000000815260040161314a90615912565b60405180910390fd5b806005600061316061400c565b73ffffffffffffffffffffffffffffffffffffffff1673ffffffffffffffffffffffffffffffffffffffff16815260200190815260200160002060008473ffffffffffffffffffffffffffffffffffffffff1673ffffffffffffffffffffffffffffffffffffffff16815260200190815260200160002060006101000a81548160ff0219169083151502179055508173ffffffffffffffffffffffffffffffffffffffff1661320d61400c565b73ffffffffffffffffffffffffffffffffffffffff167f17307eab39ab6107e8899845ad3d59bd9653f200f220920489ca2b5937696c318360405161325291906157fa565b60405180910390a35050565b600047905090565b61327761327161400c565b836140ee565b6132b6576040517f08c379a00000000000000000000000000000000000000000000000000000000081526004016132ad90615af2565b60405180910390fd5b6132c284848484614539565b50505050565b60086020528060005260406000206000915054906101000a900460ff1681565b6000600960003373ffffffffffffffffffffffffffffffffffffffff1673ffffffffffffffffffffffffffffffffffffffff168152602001908152602001600020826001811115613362577f4e487b7100000000000000000000000000000000000000000000000000000000600052602160045260246000fd5b60048110613399577f4e487b7100000000000000000000000000000000000000000000000000000000600052603260045260246000fd5b0154146133db576040517f08c379a00000000000000000000000000000000000000000000000000000000081526004016133d290615892565b60405180910390fd5b6133e5600f6140cd565b341015613427576040517f08c379a000000000000000000000000000000000000000000000000000000000815260040161341e90615b12565b60405180910390fd5b806007600084815260200190815260200160002060020160156101000a81548160ff02191690836001811115613486577f4e487b7100000000000000000000000000000000000000000000000000000000600052602160045260246000fd5b02179055507f322113d805063fc9d63c203f13c8a2970812c3cab7cfe8cc150ee195493b60dd3360076000600960003373ffffffffffffffffffffffffffffffffffffffff1673ffffffffffffffffffffffffffffffffffffffff168152602001908152602001600020600060048110613529577f4e487b7100000000000000000000000000000000000000000000000000000000600052603260045260246000fd5b0154815260200190815260200160002060020160149054906101000a900460ff1660076000600960003373ffffffffffffffffffffffffffffffffffffffff1673ffffffffffffffffffffffffffffffffffffffff1681526020019081526020016000206001600481106135c6577f4e487b7100000000000000000000000000000000000000000000000000000000600052603260045260246000fd5b0154815260200190815260200160002060020160149054906101000a900460ff1660076000600960003373ffffffffffffffffffffffffffffffffffffffff1673ffffffffffffffffffffffffffffffffffffffff168152602001908152602001600020600060048110613663577f4e487b7100000000000000000000000000000000000000000000000000000000600052603260045260246000fd5b0154815260200190815260200160002060020160159054906101000a900460ff1660076000600960003373ffffffffffffffffffffffffffffffffffffffff1673ffffffffffffffffffffffffffffffffffffffff168152602001908152602001600020600160048110613700577f4e487b7100000000000000000000000000000000000000000000000000000000600052603260045260246000fd5b0154815260200190815260200160002060020160159054906101000a900460ff16600860003373ffffffffffffffffffffffffffffffffffffffff1673ffffffffffffffffffffffffffffffffffffffff16815260200190815260200160002060009054906101000a900460ff1660405161378096959493929190615799565b60405180910390a15050565b606061379782613fa0565b6137d6576040517f08c379a00000000000000000000000000000000000000000000000000000000081526004016137cd90615a92565b60405180910390fd5b60006137e0614595565b90506000815111613800576040518060200160405280600081525061382b565b8061380a846145ac565b60405160200161381b92919061570e565b6040516020818303038152906040525b915050919050565b600660009054906101000a900473ffffffffffffffffffffffffffffffffffffffff1673ffffffffffffffffffffffffffffffffffffffff163373ffffffffffffffffffffffffffffffffffffffff16146138c3576040517f08c379a00000000000000000000000000000000000000000000000000000000081526004016138ba90615932565b60405180910390fd5b8073ffffffffffffffffffffffffffffffffffffffff166108fc6138e7600a6140cd565b9081150290604051600060405180830381858888f19350505050158015613912573d6000803e3d6000fd5b5050565b60006002811115613950577f4e487b7100000000000000000000000000000000000000000000000000000000600052602160045260246000fd5b600860003373ffffffffffffffffffffffffffffffffffffffff1673ffffffffffffffffffffffffffffffffffffffff16815260200190815260200160002060009054906101000a900460ff1660028111156139d5577f4e487b7100000000000000000000000000000000000000000000000000000000600052602160045260246000fd5b1415613a16576040517f08c379a0000000000000000000000000000000000000000000000000000000008152600401613a0d90615852565b60405180910390fd5b806002811115613a4f577f4e487b7100000000000000000000000000000000000000000000000000000000600052602160045260246000fd5b600860003373ffffffffffffffffffffffffffffffffffffffff1673ffffffffffffffffffffffffffffffffffffffff16815260200190815260200160002060009054906101000a900460ff166002811115613ad4577f4e487b7100000000000000000000000000000000000000000000000000000000600052602160045260246000fd5b14613b14576040517f08c379a0000000000000000000000000000000000000000000000000000000008152600401613b0b90615a52565b60405180910390fd5b6000600860003373ffffffffffffffffffffffffffffffffffffffff1673ffffffffffffffffffffffffffffffffffffffff16815260200190815260200160002060006101000a81548160ff02191690836002811115613b9d577f4e487b7100000000000000000000000000000000000000000000000000000000600052602160045260246000fd5b02179055507f322113d805063fc9d63c203f13c8a2970812c3cab7cfe8cc150ee195493b60dd3360076000600960003373ffffffffffffffffffffffffffffffffffffffff1673ffffffffffffffffffffffffffffffffffffffff168152602001908152602001600020600060048110613c40577f4e487b7100000000000000000000000000000000000000000000000000000000600052603260045260246000fd5b0154815260200190815260200160002060020160149054906101000a900460ff1660076000600960003373ffffffffffffffffffffffffffffffffffffffff1673ffffffffffffffffffffffffffffffffffffffff168152602001908152602001600020600160048110613cdd577f4e487b7100000000000000000000000000000000000000000000000000000000600052603260045260246000fd5b0154815260200190815260200160002060020160149054906101000a900460ff1660076000600960003373ffffffffffffffffffffffffffffffffffffffff1673ffffffffffffffffffffffffffffffffffffffff168152602001908152602001600020600060048110613d7a577f4e487b7100000000000000000000000000000000000000000000000000000000600052603260045260246000fd5b0154815260200190815260200160002060020160159054906101000a900460ff1660076000600960003373ffffffffffffffffffffffffffffffffffffffff1673ffffffffffffffffffffffffffffffffffffffff168152602001908152602001600020600160048110613e17577f4e487b7100000000000000000000000000000000000000000000000000000000600052603260045260246000fd5b0154815260200190815260200160002060020160159054906101000a900460ff16600860003373ffffffffffffffffffffffffffffffffffffffff1673ffffffffffffffffffffffffffffffffffffffff16815260200190815260200160002060009054906101000a900460ff16604051613e9796959493929190615799565b60405180910390a150565b6000600560008473ffffffffffffffffffffffffffffffffffffffff1673ffffffffffffffffffffffffffffffffffffffff16815260200190815260200160002060008373ffffffffffffffffffffffffffffffffffffffff1673ffffffffffffffffffffffffffffffffffffffff16815260200190815260200160002060009054906101000a900460ff16905092915050565b60007f01ffc9a7000000000000000000000000000000000000000000000000000000007bffffffffffffffffffffffffffffffffffffffffffffffffffffffff1916827bffffffffffffffffffffffffffffffffffffffffffffffffffffffff1916149050919050565b60008073ffffffffffffffffffffffffffffffffffffffff166002600084815260200190815260200160002060009054906101000a900473ffffffffffffffffffffffffffffffffffffffff1673ffffffffffffffffffffffffffffffffffffffff1614159050919050565b600033905090565b816004600083815260200190815260200160002060006101000a81548173ffffffffffffffffffffffffffffffffffffffff021916908373ffffffffffffffffffffffffffffffffffffffff160217905550808273ffffffffffffffffffffffffffffffffffffffff166140878361267c565b73ffffffffffffffffffffffffffffffffffffffff167f8c5be1e5ebec7d5bd14f71427d1e84f3dd0314c0f7b2291e5b200ac8c7c3b92560405160405180910390a45050565b6000816064476140dd9190615cda565b6140e79190615d0b565b9050919050565b60006140f982613fa0565b614138576040517f08c379a000000000000000000000000000000000000000000000000000000000815260040161412f90615972565b60405180910390fd5b60006141438361267c565b90508073ffffffffffffffffffffffffffffffffffffffff168473ffffffffffffffffffffffffffffffffffffffff1614806141b257508373ffffffffffffffffffffffffffffffffffffffff1661419a8461086e565b73ffffffffffffffffffffffffffffffffffffffff16145b806141c357506141c28185613ea2565b5b91505092915050565b8273ffffffffffffffffffffffffffffffffffffffff166141ec8261267c565b73ffffffffffffffffffffffffffffffffffffffff1614614242576040517f08c379a000000000000000000000000000000000000000000000000000000000815260040161423990615a72565b60405180910390fd5b600073ffffffffffffffffffffffffffffffffffffffff168273ffffffffffffffffffffffffffffffffffffffff1614156142b2576040517f08c379a00000000000000000000000000000000000000000000000000000000081526004016142a9906158f2565b60405180910390fd5b6142bd838383614759565b6142c8600082614014565b6001600360008573ffffffffffffffffffffffffffffffffffffffff1673ffffffffffffffffffffffffffffffffffffffff16815260200190815260200160002060008282546143189190615d65565b925050819055506001600360008473ffffffffffffffffffffffffffffffffffffffff1673ffffffffffffffffffffffffffffffffffffffff168152602001908152602001600020600082825461436f9190615c84565b92505081905550816002600083815260200190815260200160002060006101000a81548173ffffffffffffffffffffffffffffffffffffffff021916908373ffffffffffffffffffffffffffffffffffffffff160217905550808273ffffffffffffffffffffffffffffffffffffffff168473ffffffffffffffffffffffffffffffffffffffff167fddf252ad1be2c89b69c2b068fc378daa952ba7f163c4a11628f55a4df523b3ef60405160405180910390a4505050565b60006144338261267c565b905061444181600084614759565b61444c600083614014565b6001600360008373ffffffffffffffffffffffffffffffffffffffff1673ffffffffffffffffffffffffffffffffffffffff168152602001908152602001600020600082825461449c9190615d65565b925050819055506002600083815260200190815260200160002060006101000a81549073ffffffffffffffffffffffffffffffffffffffff021916905581600073ffffffffffffffffffffffffffffffffffffffff168273ffffffffffffffffffffffffffffffffffffffff167fddf252ad1be2c89b69c2b068fc378daa952ba7f163c4a11628f55a4df523b3ef60405160405180910390a45050565b6145448484846141cc565b6145508484848461475e565b61458f576040517f08c379a000000000000000000000000000000000000000000000000000000000815260040161458690615872565b60405180910390fd5b50505050565b606060405180602001604052806000815250905090565b606060008214156145f4576040518060400160405280600181526020017f30000000000000000000000000000000000000000000000000000000000000008152509050614754565b600082905060005b6000821461462657808061460f90615f04565b915050600a8261461f9190615cda565b91506145fc565b60008167ffffffffffffffff811115614668577f4e487b7100000000000000000000000000000000000000000000000000000000600052604160045260246000fd5b6040519080825280601f01601f19166020018201604052801561469a5781602001600182028036833780820191505090505b5090505b6000851461474d576001826146b39190615d65565b9150600a856146c29190615f7e565b60306146ce9190615c84565b60f81b81838151811061470a577f4e487b7100000000000000000000000000000000000000000000000000000000600052603260045260246000fd5b60200101907effffffffffffffffffffffffffffffffffffffffffffffffffffffffffffff1916908160001a905350600a856147469190615cda565b945061469e565b8093505050505b919050565b505050565b600061477f8473ffffffffffffffffffffffffffffffffffffffff166148f5565b156148e8578373ffffffffffffffffffffffffffffffffffffffff1663150b7a026147a861400c565b8786866040518563ffffffff1660e01b81526004016147ca949392919061574d565b602060405180830381600087803b1580156147e457600080fd5b505af192505050801561481557506040513d601f19601f820116820180604052508101906148129190614bd3565b60015b614898573d8060008114614845576040519150601f19603f3d011682016040523d82523d6000602084013e61484a565b606091505b50600081511415614890576040517f08c379a000000000000000000000000000000000000000000000000000000000815260040161488790615872565b60405180910390fd5b805181602001fd5b63150b7a0260e01b7bffffffffffffffffffffffffffffffffffffffffffffffffffffffff1916817bffffffffffffffffffffffffffffffffffffffffffffffffffffffff1916149150506148ed565b600190505b949350505050565b600080823b905060008111915050919050565b600061491b61491684615c11565b615be0565b90508281526020810184848401111561493357600080fd5b61493e848285615e90565b509392505050565b600081359050614955816160e7565b92915050565b60008135905061496a816160fe565b92915050565b60008135905061497f81616115565b92915050565b60008151905061499481616115565b92915050565b600082601f8301126149ab57600080fd5b81356149bb848260208601614908565b91505092915050565b6000813590506149d38161612c565b92915050565b6000813590506149e88161613c565b92915050565b6000813590506149fd8161614c565b92915050565b600060208284031215614a1557600080fd5b6000614a2384828501614946565b91505092915050565b60008060408385031215614a3f57600080fd5b6000614a4d85828601614946565b9250506020614a5e85828601614946565b9150509250929050565b600080600060608486031215614a7d57600080fd5b6000614a8b86828701614946565b9350506020614a9c86828701614946565b9250506040614aad868287016149ee565b9150509250925092565b60008060008060808587031215614acd57600080fd5b6000614adb87828801614946565b9450506020614aec87828801614946565b9350506040614afd878288016149ee565b925050606085013567ffffffffffffffff811115614b1a57600080fd5b614b268782880161499a565b91505092959194509250565b60008060408385031215614b4557600080fd5b6000614b5385828601614946565b9250506020614b648582860161495b565b9150509250929050565b60008060408385031215614b8157600080fd5b6000614b8f85828601614946565b9250506020614ba0858286016149ee565b9150509250929050565b600060208284031215614bbc57600080fd5b6000614bca84828501614970565b91505092915050565b600060208284031215614be557600080fd5b6000614bf384828501614985565b91505092915050565b600060208284031215614c0e57600080fd5b6000614c1c848285016149c4565b91505092915050565b600060208284031215614c3757600080fd5b6000614c45848285016149d9565b91505092915050565b600060208284031215614c6057600080fd5b6000614c6e848285016149ee565b91505092915050565b60008060408385031215614c8a57600080fd5b6000614c98858286016149ee565b9250506020614ca9858286016149c4565b9150509250929050565b614cbc81615d99565b82525050565b614ccb81615dab565b82525050565b6000614cdc82615c41565b614ce68185615c57565b9350614cf6818560208601615e9f565b614cff8161609a565b840191505092915050565b614d1381615e5a565b82525050565b614d2281615e6c565b82525050565b614d3181615e7e565b82525050565b6000614d4282615c4c565b614d4c8185615c68565b9350614d5c818560208601615e9f565b614d658161609a565b840191505092915050565b6000614d7b82615c4c565b614d858185615c79565b9350614d95818560208601615e9f565b80840191505092915050565b6000614dae601b83615c68565b91507f596f7520646f6e742068617665207374616b656420746f6b656e7300000000006000830152602082019050919050565b6000614dee603283615c68565b91507f4552433732313a207472616e7366657220746f206e6f6e20455243373231526560008301527f63656976657220696d706c656d656e74657200000000000000000000000000006020830152604082019050919050565b6000614e54602883615c68565b91507f596f752063616e206f6e6c792068617665206f6e65206b696e64206f6620746f60008301527f6b656e20747970650000000000000000000000000000000000000000000000006020830152604082019050919050565b6000614eba602483615c68565b91507f54686520746f6b656e2063616e7420626520646f776e67726164656420616e7960008301527f6d6f7265000000000000000000000000000000000000000000000000000000006020830152604082019050919050565b6000614f20603383615c68565b91507f596f752063616e206f6e6c79207374616b6520796f757220746f6b656e73206960008301527f6e20312076616c757420617420612074696d65000000000000000000000000006020830152604082019050919050565b6000614f86602483615c68565b91507f4552433732313a207472616e7366657220746f20746865207a65726f2061646460008301527f72657373000000000000000000000000000000000000000000000000000000006020830152604082019050919050565b6000614fec601983615c68565b91507f4552433732313a20617070726f766520746f2063616c6c6572000000000000006000830152602082019050919050565b600061502c602d83615c68565b91507f4f6e6c7920746865206d616e616765722063616e206177616b6520746869732060008301527f66756e6374696f6e616c697479000000000000000000000000000000000000006020830152604082019050919050565b6000615092602b83615c68565b91507f596f75206e65656420746f2070617920323025206f662074686520636f6e747260008301527f6163742062616c616e63650000000000000000000000000000000000000000006020830152604082019050919050565b60006150f8602c83615c68565b91507f4552433732313a206f70657261746f7220717565727920666f72206e6f6e657860008301527f697374656e7420746f6b656e00000000000000000000000000000000000000006020830152604082019050919050565b600061515e602883615c68565b91507f596f75206e65656420746f2073656e6420313025206f6620636f6e747261637460008301527f2062616c616e63650000000000000000000000000000000000000000000000006020830152604082019050919050565b60006151c4603883615c68565b91507f4552433732313a20617070726f76652063616c6c6572206973206e6f74206f7760008301527f6e6572206e6f7220617070726f76656420666f7220616c6c00000000000000006020830152604082019050919050565b600061522a602a83615c68565b91507f4552433732313a2062616c616e636520717565727920666f7220746865207a6560008301527f726f2061646472657373000000000000000000000000000000000000000000006020830152604082019050919050565b6000615290602983615c68565b91507f4552433732313a206f776e657220717565727920666f72206e6f6e657869737460008301527f656e7420746f6b656e00000000000000000000000000000000000000000000006020830152604082019050919050565b60006152f6602683615c68565b91507f4f6e6c7920746865206f776e65722063616e20646f776e67726164652074686560008301527f20746f6b656e00000000000000000000000000000000000000000000000000006020830152604082019050919050565b600061535c602c83615c68565b91507f4552433732313a20617070726f76656420717565727920666f72206e6f6e657860008301527f697374656e7420746f6b656e00000000000000000000000000000000000000006020830152604082019050919050565b60006153c2605283615c68565b91507f596f752063616e7420756e7374616b652066726f6d206120646966666572656e60008301527f7420746f6b656e207661756c742c20706c6561736520676f206261636b20746f60208301527f207468652063757272656374207661756c7400000000000000000000000000006040830152606082019050919050565b600061544e602983615c68565b91507f4552433732313a207472616e73666572206f6620746f6b656e2074686174206960008301527f73206e6f74206f776e00000000000000000000000000000000000000000000006020830152604082019050919050565b60006154b4602f83615c68565b91507f4552433732314d657461646174613a2055524920717565727920666f72206e6f60008301527f6e6578697374656e7420746f6b656e00000000000000000000000000000000006020830152604082019050919050565b600061551a602183615c68565b91507f4552433732313a20617070726f76616c20746f2063757272656e74206f776e6560008301527f72000000000000000000000000000000000000000000000000000000000000006020830152604082019050919050565b6000615580601f83615c68565b91507f4f6e6c7920746865206f776e65722063616e206275726e206120746f6b656e006000830152602082019050919050565b60006155c0603183615c68565b91507f4552433732313a207472616e736665722063616c6c6572206973206e6f74206f60008301527f776e6572206e6f7220617070726f7665640000000000000000000000000000006020830152604082019050919050565b6000615626602883615c68565b91507f596f75206e65656420746f2073656e6420313525206f6620636f6e747261637460008301527f2062616c616e63650000000000000000000000000000000000000000000000006020830152604082019050919050565b600061568c601d83615c68565b91507f596f752063616e74206f766572777269746520796f757220746f6b656e0000006000830152602082019050919050565b60006156cc601983615c68565b91507f596f75206e65656420746f2073656e64206d6f726520455448000000000000006000830152602082019050919050565b61570881615e3c565b82525050565b600061571a8285614d70565b91506157268284614d70565b91508190509392505050565b60006020820190506157476000830184614cb3565b92915050565b60006080820190506157626000830187614cb3565b61576f6020830186614cb3565b61577c60408301856156ff565b818103606083015261578e8184614cd1565b905095945050505050565b600060c0820190506157ae6000830189614cb3565b6157bb6020830188614d0a565b6157c86040830187614d0a565b6157d56060830186614d19565b6157e26080830185614d19565b6157ef60a0830184614d28565b979650505050505050565b600060208201905061580f6000830184614cc2565b92915050565b600060208201905061582a6000830184614d28565b92915050565b6000602082019050818103600083015261584a8184614d37565b905092915050565b6000602082019050818103600083015261586b81614da1565b9050919050565b6000602082019050818103600083015261588b81614de1565b9050919050565b600060208201905081810360008301526158ab81614e47565b9050919050565b600060208201905081810360008301526158cb81614ead565b9050919050565b600060208201905081810360008301526158eb81614f13565b9050919050565b6000602082019050818103600083015261590b81614f79565b9050919050565b6000602082019050818103600083015261592b81614fdf565b9050919050565b6000602082019050818103600083015261594b8161501f565b9050919050565b6000602082019050818103600083015261596b81615085565b9050919050565b6000602082019050818103600083015261598b816150eb565b9050919050565b600060208201905081810360008301526159ab81615151565b9050919050565b600060208201905081810360008301526159cb816151b7565b9050919050565b600060208201905081810360008301526159eb8161521d565b9050919050565b60006020820190508181036000830152615a0b81615283565b9050919050565b60006020820190508181036000830152615a2b816152e9565b9050919050565b60006020820190508181036000830152615a4b8161534f565b9050919050565b60006020820190508181036000830152615a6b816153b5565b9050919050565b60006020820190508181036000830152615a8b81615441565b9050919050565b60006020820190508181036000830152615aab816154a7565b9050919050565b60006020820190508181036000830152615acb8161550d565b9050919050565b60006020820190508181036000830152615aeb81615573565b9050919050565b60006020820190508181036000830152615b0b816155b3565b9050919050565b60006020820190508181036000830152615b2b81615619565b9050919050565b60006020820190508181036000830152615b4b8161567f565b9050919050565b60006020820190508181036000830152615b6b816156bf565b9050919050565b6000602082019050615b8760008301846156ff565b92915050565b600060a082019050615ba260008301886156ff565b615baf60208301876156ff565b615bbc6040830186614cb3565b615bc96060830185614d0a565b615bd66080830184614d19565b9695505050505050565b6000604051905081810181811067ffffffffffffffff82111715615c0757615c0661606b565b5b8060405250919050565b600067ffffffffffffffff821115615c2c57615c2b61606b565b5b601f19601f8301169050602081019050919050565b600081519050919050565b600081519050919050565b600082825260208201905092915050565b600082825260208201905092915050565b600081905092915050565b6000615c8f82615e3c565b9150615c9a83615e3c565b9250827fffffffffffffffffffffffffffffffffffffffffffffffffffffffffffffffff03821115615ccf57615cce615faf565b5b828201905092915050565b6000615ce582615e3c565b9150615cf083615e3c565b925082615d0057615cff615fde565b5b828204905092915050565b6000615d1682615e3c565b9150615d2183615e3c565b9250817fffffffffffffffffffffffffffffffffffffffffffffffffffffffffffffffff0483118215151615615d5a57615d59615faf565b5b828202905092915050565b6000615d7082615e3c565b9150615d7b83615e3c565b925082821015615d8e57615d8d615faf565b5b828203905092915050565b6000615da482615e1c565b9050919050565b60008115159050919050565b60007fffffffff0000000000000000000000000000000000000000000000000000000082169050919050565b6000819050615df1826160ab565b919050565b6000819050615e04826160bf565b919050565b6000819050615e17826160d3565b919050565b600073ffffffffffffffffffffffffffffffffffffffff82169050919050565b6000819050919050565b600067ffffffffffffffff82169050919050565b6000615e6582615de3565b9050919050565b6000615e7782615df6565b9050919050565b6000615e8982615e09565b9050919050565b82818337600083830152505050565b60005b83811015615ebd578082015181840152602081019050615ea2565b83811115615ecc576000848401525b50505050565b60006002820490506001821680615eea57607f821691505b60208210811415615efe57615efd61603c565b5b50919050565b6000615f0f82615e3c565b91507fffffffffffffffffffffffffffffffffffffffffffffffffffffffffffffffff821415615f4257615f41615faf565b5b600182019050919050565b6000615f5882615e46565b915067ffffffffffffffff821415615f7357615f72615faf565b5b600182019050919050565b6000615f8982615e3c565b9150615f9483615e3c565b925082615fa457615fa3615fde565b5b828206905092915050565b7f4e487b7100000000000000000000000000000000000000000000000000000000600052601160045260246000fd5b7f4e487b7100000000000000000000000000000000000000000000000000000000600052601260045260246000fd5b7f4e487b7100000000000000000000000000000000000000000000000000000000600052602160045260246000fd5b7f4e487b7100000000000000000000000000000000000000000000000000000000600052602260045260246000fd5b7f4e487b7100000000000000000000000000000000000000000000000000000000600052604160045260246000fd5b6000601f19601f8301169050919050565b600481106160bc576160bb61600d565b5b50565b600281106160d0576160cf61600d565b5b50565b600381106160e4576160e361600d565b5b50565b6160f081615d99565b81146160fb57600080fd5b50565b61610781615dab565b811461611257600080fd5b50565b61611e81615db7565b811461612957600080fd5b50565b6002811061613957600080fd5b50565b6003811061614957600080fd5b50565b61615581615e3c565b811461616057600080fd5b5056fea2646970667358221220bf5dc13cc7e52210142940710de8d67bb5e297079381b73112222671fe1c6f3a64736f6c63430008000033",
  "immutableReferences": {},
  "source": "// SPDX-License-Identifier:UNLICENSED \n\n//NOTES\n/*\n    Token should have a name\n    At createToken the !=0 should be ==\n */\n\npragma solidity 0.8.0;\n\nimport \"@openzeppelin/contracts/token/ERC721/ERC721.sol\";\n\ncontract UUNFT is ERC721(\"UpgradableNFT\",\"UUNFT\") { // also implement Ownalbe \n\n    address public manager;\n    enum TokenType {Fire,Water}\n    enum TokenLevel {LevelZero,LevelOne, LevelTwo, LevelThree}\n    enum TokenVault {NoVault,TokenVaultOne, TokenVaultTwo} // Default NoVault\n    uint64 tokenId = 1; \n    mapping(uint => TokenMetaData) public tokens;\n    mapping(address => TokenVault) public lockedVaultTokens;\n    mapping(address => uint[4]) public tokenOwners;\n    //add events\n    constructor () payable{\n        manager = msg.sender;\n    }\n \n\n   \n\n\n    event GenericEvent(address,TokenLevel,TokenLevel,TokenType,TokenType,TokenVault);\n    \n    struct TokenMetaData {\n        uint id;\n        uint timestamp;\n        address owner;\n        TokenLevel tokenLevel;\n        TokenType tokenType;\n    }\n\n  \n    \n    \n    function CreateToken(TokenType _tokenType) public  payable{//alsow user need to pay ETH in order to create a token\n        require(msg.value >= calculateEtherToSend(1),'You need to send more ETH');\n        require(tokenOwners[msg.sender][uint(_tokenType)] == 0,'You cant overwrite your token'); \n        tokens[tokenId].id = tokenId;\n        tokens[tokenId].timestamp = block.timestamp;\n        tokens[tokenId].tokenType = _tokenType;\n        tokens[tokenId].owner = msg.sender;\n        tokenOwners[msg.sender][uint(_tokenType)] = tokenId; \n        \n        emit GenericEvent(msg.sender,tokens[tokenOwners[msg.sender][0]].tokenLevel,tokens[tokenOwners[msg.sender][1]].tokenLevel,tokens[tokenOwners[msg.sender][0]].tokenType,tokens[tokenOwners[msg.sender][1]].tokenType,lockedVaultTokens[msg.sender]);\n        tokenId++;\n    }\n    function upgradeToken(uint _tokenToBeUpgradedId) public payable{\n        \n       require(msg.value >= calculateEtherToSend(10),'You need to send 10% of contract balance');\n        tokens[_tokenToBeUpgradedId].tokenLevel =TokenLevel(uint(tokens[_tokenToBeUpgradedId].tokenLevel) + 1);\n        emit GenericEvent(msg.sender,tokens[tokenOwners[msg.sender][0]].tokenLevel,tokens[tokenOwners[msg.sender][1]].tokenLevel,tokens[tokenOwners[msg.sender][0]].tokenType,tokens[tokenOwners[msg.sender][1]].tokenType,lockedVaultTokens[msg.sender]);\n        \n        \n    }\n    function removeTokenById(uint _tokenToBeBurnedId) public{\n        for(uint i = 0; i < tokenOwners[msg.sender].length; i++) {\n            if(tokenOwners[msg.sender][i] == _tokenToBeBurnedId) {\n                tokenOwners[msg.sender][i] = tokenOwners[msg.sender][tokenOwners[msg.sender].length-1];\n                tokenOwners[msg.sender][tokenOwners[msg.sender].length-1] = 0;\n                emit GenericEvent(msg.sender,tokens[tokenOwners[msg.sender][0]].tokenLevel,tokens[tokenOwners[msg.sender][1]].tokenLevel,tokens[tokenOwners[msg.sender][0]].tokenType,tokens[tokenOwners[msg.sender][1]].tokenType,lockedVaultTokens[msg.sender]);\n                break;\n            }\n        }\n    }\n    \n    function balance() public view returns(uint){\n        return address(this).balance;\n    }\n    function getVault(address o) public view returns(TokenVault) {\n        return lockedVaultTokens[o];\n    }\n\n    function calculateEtherToSend(uint percentage) internal view returns(uint minAmountToSend) {\n        minAmountToSend = (address(this).balance/100)*percentage; //the minimum amount is 1% of the contract balance\n    }\n    function mutateToken(uint _tokenToBeUpgradedId,TokenType _designatedType) public payable{\n        require(tokenOwners[msg.sender][uint(_designatedType)] == 0,'You can only have one kind of token type');\n        require(msg.value >= calculateEtherToSend(15),'You need to send 15% of contract balance');\n        tokens[_tokenToBeUpgradedId].tokenType = _designatedType;\n        emit GenericEvent(msg.sender,tokens[tokenOwners[msg.sender][0]].tokenLevel,tokens[tokenOwners[msg.sender][1]].tokenLevel,tokens[tokenOwners[msg.sender][0]].tokenType,tokens[tokenOwners[msg.sender][1]].tokenType,lockedVaultTokens[msg.sender]);\n        \n    }\n\n     function giveWinnerProfit(address _winner) public payable {\n         require(msg.sender == manager,'Only the manager can awake this functionality');\n         payable(_winner).transfer(calculateEtherToSend(10));\n         \n     }\n\n     fallback() external payable{}\n     receive() external payable{}\n\n    \n       function Disasamble(uint _tokenToBeDisasabledId) public {\n           require(msg.sender == tokens[_tokenToBeDisasabledId].owner,'Only the owner can burn a token');\n           removeTokenById(_tokenToBeDisasabledId);\n           _burn(_tokenToBeDisasabledId);\n           payable(msg.sender).transfer(calculateEtherToSend(5));\n           emit GenericEvent(msg.sender,tokens[tokenOwners[msg.sender][0]].tokenLevel,tokens[tokenOwners[msg.sender][1]].tokenLevel,tokens[tokenOwners[msg.sender][0]].tokenType,tokens[tokenOwners[msg.sender][1]].tokenType,lockedVaultTokens[msg.sender]);\n        \n       }\n\n        function downgrade(uint _tokenToBeDownGraded) public payable{\n            require(msg.sender == tokens[_tokenToBeDownGraded].owner,'Only the owner can downgrade the token');\n            require(tokens[_tokenToBeDownGraded].tokenLevel != TokenLevel.LevelZero,'The token cant be downgraded anymore');\n            tokens[_tokenToBeDownGraded].tokenLevel = TokenLevel(uint(tokens[_tokenToBeDownGraded].tokenLevel) - 1);\n            payable(msg.sender).transfer(calculateEtherToSend(5));\n           emit GenericEvent(msg.sender,tokens[tokenOwners[msg.sender][0]].tokenLevel,tokens[tokenOwners[msg.sender][1]].tokenLevel,tokens[tokenOwners[msg.sender][0]].tokenType,tokens[tokenOwners[msg.sender][1]].tokenType,lockedVaultTokens[msg.sender]);\n        \n        }\n\n        function updateToMax(uint _tokenToBeUpdatedId) public payable{\n            require(msg.value >= calculateEtherToSend(20),'You need to pay 20% of the contract balance');\n            tokens[_tokenToBeUpdatedId].tokenLevel = TokenLevel.LevelThree;\n            emit GenericEvent(msg.sender,tokens[tokenOwners[msg.sender][0]].tokenLevel,tokens[tokenOwners[msg.sender][1]].tokenLevel,tokens[tokenOwners[msg.sender][0]].tokenType,tokens[tokenOwners[msg.sender][1]].tokenType,lockedVaultTokens[msg.sender]);\n        \n        }\n\n\n        function Stake(TokenVault _tokenVault) public {\n            require(lockedVaultTokens[msg.sender] == TokenVault.NoVault,'You can only stake your tokens in 1 valut at a time');\n            lockedVaultTokens[msg.sender] = _tokenVault;\n            emit GenericEvent(msg.sender,tokens[tokenOwners[msg.sender][0]].tokenLevel,tokens[tokenOwners[msg.sender][1]].tokenLevel,tokens[tokenOwners[msg.sender][0]].tokenType,tokens[tokenOwners[msg.sender][1]].tokenType,lockedVaultTokens[msg.sender]);\n        \n        }\n\n        function unStake(TokenVault _currentTokenVault) public {\n            require(lockedVaultTokens[msg.sender] != TokenVault.NoVault,'You dont have staked tokens');\n            require(lockedVaultTokens[msg.sender] == _currentTokenVault,'You cant unstake from a different token vault, please go back to the currect vault');\n            lockedVaultTokens[msg.sender] = TokenVault.NoVault;\n            emit GenericEvent(msg.sender,tokens[tokenOwners[msg.sender][0]].tokenLevel,tokens[tokenOwners[msg.sender][1]].tokenLevel,tokens[tokenOwners[msg.sender][0]].tokenType,tokens[tokenOwners[msg.sender][1]].tokenType,lockedVaultTokens[msg.sender]);\n        \n        }\n        \n      \n}",
  "sourcePath": "/home/bekim/Documents/Projects/Universal Upgradable NFT/contracts/UniversalUpgradableNFT.sol",
  "compiler": {
    "name": "solc",
    "version": "0.8.0+commit.c7dfd78e.Emscripten.clang"
  },
  "schemaVersion": "3.4.1",
  "updatedAt": "2021-10-11T17:55:40.770Z",
  "devdoc": {
    "kind": "dev",
    "methods": {
      "approve(address,uint256)": {
        "details": "See {IERC721-approve}."
      },
      "balanceOf(address)": {
        "details": "See {IERC721-balanceOf}."
      },
      "getApproved(uint256)": {
        "details": "See {IERC721-getApproved}."
      },
      "isApprovedForAll(address,address)": {
        "details": "See {IERC721-isApprovedForAll}."
      },
      "name()": {
        "details": "See {IERC721Metadata-name}."
      },
      "ownerOf(uint256)": {
        "details": "See {IERC721-ownerOf}."
      },
      "safeTransferFrom(address,address,uint256)": {
        "details": "See {IERC721-safeTransferFrom}."
      },
      "safeTransferFrom(address,address,uint256,bytes)": {
        "details": "See {IERC721-safeTransferFrom}."
      },
      "setApprovalForAll(address,bool)": {
        "details": "See {IERC721-setApprovalForAll}."
      },
      "supportsInterface(bytes4)": {
        "details": "See {IERC165-supportsInterface}."
      },
      "symbol()": {
        "details": "See {IERC721Metadata-symbol}."
      },
      "tokenURI(uint256)": {
        "details": "See {IERC721Metadata-tokenURI}."
      },
      "transferFrom(address,address,uint256)": {
        "details": "See {IERC721-transferFrom}."
      }
    },
    "version": 1
  },
  "userdoc": {
    "kind": "user",
    "methods": {},
    "version": 1
  }
}